{
  "_format": "hh-sol-artifact-1",
  "contractName": "PreSale",
  "sourceName": "contracts/PreSale.sol",
  "abi": [
    {
      "inputs": [
        {
          "internalType": "address",
          "name": "_token",
          "type": "address"
        }
      ],
      "stateMutability": "nonpayable",
      "type": "constructor"
    },
    {
      "anonymous": false,
      "inputs": [
        {
          "indexed": false,
          "internalType": "uint256",
          "name": "",
          "type": "uint256"
        }
      ],
      "name": "priceChange",
      "type": "event"
    },
    {
      "anonymous": false,
      "inputs": [
        {
          "indexed": true,
          "internalType": "address",
          "name": "",
          "type": "address"
        },
        {
          "indexed": true,
          "internalType": "uint256",
          "name": "",
          "type": "uint256"
        }
      ],
      "name": "tokenSold",
      "type": "event"
    },
    {
      "inputs": [
        {
          "internalType": "uint256",
          "name": "newPrice",
          "type": "uint256"
        }
      ],
      "name": "changePrice",
      "outputs": [],
      "stateMutability": "nonpayable",
      "type": "function"
    },
    {
      "inputs": [],
      "name": "currentRate",
      "outputs": [
        {
          "internalType": "uint256",
          "name": "",
          "type": "uint256"
        }
      ],
      "stateMutability": "view",
      "type": "function"
    },
    {
      "inputs": [],
      "name": "getAllBalance",
      "outputs": [],
      "stateMutability": "nonpayable",
      "type": "function"
    },
    {
      "inputs": [],
      "name": "getTokenPriceInEth",
      "outputs": [
        {
          "internalType": "uint256",
          "name": "",
          "type": "uint256"
        }
      ],
      "stateMutability": "view",
      "type": "function"
    },
    {
      "inputs": [],
      "name": "getTokenPriceInUSD",
      "outputs": [
        {
          "internalType": "int256",
          "name": "",
          "type": "int256"
        }
      ],
      "stateMutability": "view",
      "type": "function"
    },
    {
      "inputs": [],
      "name": "mytoken",
      "outputs": [
        {
          "internalType": "address",
          "name": "",
          "type": "address"
        }
      ],
      "stateMutability": "view",
      "type": "function"
    },
    {
      "inputs": [],
      "name": "owner",
      "outputs": [
        {
          "internalType": "address",
          "name": "",
          "type": "address"
        }
      ],
      "stateMutability": "view",
      "type": "function"
    },
    {
      "inputs": [
        {
          "internalType": "uint256",
          "name": "tokens",
          "type": "uint256"
        }
      ],
      "name": "purchaseTokens",
      "outputs": [],
      "stateMutability": "payable",
      "type": "function"
    },
    {
      "inputs": [],
      "name": "totalSoldAmount",
      "outputs": [
        {
          "internalType": "uint256",
          "name": "",
          "type": "uint256"
        }
      ],
      "stateMutability": "view",
      "type": "function"
    }
  ],
  "bytecode": "0x60806040526509184e72a00060025534801561001a57600080fd5b50604051610c5c380380610c5c833981810160405281019061003c919061017b565b80600360006101000a81548173ffffffffffffffffffffffffffffffffffffffff021916908373ffffffffffffffffffffffffffffffffffffffff16021790555033600460006101000a81548173ffffffffffffffffffffffffffffffffffffffff021916908373ffffffffffffffffffffffffffffffffffffffff16021790555073694aa1769357215de4fac081bf1f309adc3253066000806101000a81548173ffffffffffffffffffffffffffffffffffffffff021916908373ffffffffffffffffffffffffffffffffffffffff160217905550506101a8565b600080fd5b600073ffffffffffffffffffffffffffffffffffffffff82169050919050565b60006101488261011d565b9050919050565b6101588161013d565b811461016357600080fd5b50565b6000815190506101758161014f565b92915050565b60006020828403121561019157610190610118565b5b600061019f84828501610166565b91505092915050565b610aa5806101b76000396000f3fe6080604052600436106100865760003560e01c80638da5cb5b116100595780638da5cb5b14610128578063a2b40d1914610153578063a8766bc11461017c578063eb9969a8146101a7578063f9f8bdb7146101be57610086565b80633aab92741461008b5780635eab74fc146100b6578063617d7940146100e15780637b97008d1461010c575b600080fd5b34801561009757600080fd5b506100a06101e9565b6040516100ad919061062b565b60405180910390f35b3480156100c257600080fd5b506100cb6101f3565b6040516100d89190610687565b60405180910390f35b3480156100ed57600080fd5b506100f6610219565b604051610103919061062b565b60405180910390f35b610126600480360381019061012191906106d3565b61021f565b005b34801561013457600080fd5b5061013d610409565b60405161014a9190610687565b60405180910390f35b34801561015f57600080fd5b5061017a600480360381019061017591906106d3565b61042f565b005b34801561018857600080fd5b506101916104ca565b60405161019e9190610719565b60405180910390f35b3480156101b357600080fd5b506101bc610569565b005b3480156101ca57600080fd5b506101d361060c565b6040516101e0919061062b565b60405180910390f35b6000600254905090565b600360009054906101000a900473ffffffffffffffffffffffffffffffffffffffff1681565b60015481565b6002546103e8826102309190610792565b61023a91906107c3565b34101561027c576040517f08c379a000000000000000000000000000000000000000000000000000000000815260040161027390610888565b60405180910390fd5b6412a05f20008160015461029091906108a8565b11156102d1576040517f08c379a00000000000000000000000000000000000000000000000000000000081526004016102c890610928565b60405180910390fd5b80600160008282546102e391906108a8565b92505081905550620f42406103e86001546102fe9190610792565b1180156103135750652d79883d200060025414155b1561032657652d79883d20006002819055505b600360009054906101000a900473ffffffffffffffffffffffffffffffffffffffff1673ffffffffffffffffffffffffffffffffffffffff166340c10f1933836040518363ffffffff1660e01b8152600401610383929190610948565b600060405180830381600087803b15801561039d57600080fd5b505af11580156103b1573d6000803e3d6000fd5b505050506103e8816103c39190610792565b3373ffffffffffffffffffffffffffffffffffffffff167f2f2b21b3b36fd909dea1b2a28e4004357c70cc374401c53a8f77edd65cefbff260405160405180910390a350565b600460009054906101000a900473ffffffffffffffffffffffffffffffffffffffff1681565b600460009054906101000a900473ffffffffffffffffffffffffffffffffffffffff1673ffffffffffffffffffffffffffffffffffffffff163373ffffffffffffffffffffffffffffffffffffffff161461048957600080fd5b806002819055507f68ea16a5b1315194f5b4ec6b3b84759f19b2a93da7cc8b4ba0e020ec68868cdb816040516104bf919061062b565b60405180910390a150565b60008060008054906101000a900473ffffffffffffffffffffffffffffffffffffffff1673ffffffffffffffffffffffffffffffffffffffff1663feaf968c6040518163ffffffff1660e01b815260040160a060405180830381865afa158015610538573d6000803e3d6000fd5b505050506040513d601f19601f8201168201806040525081019061055c91906109f4565b5050509150508091505090565b600460009054906101000a900473ffffffffffffffffffffffffffffffffffffffff1673ffffffffffffffffffffffffffffffffffffffff163373ffffffffffffffffffffffffffffffffffffffff16146105c357600080fd5b3373ffffffffffffffffffffffffffffffffffffffff166108fc479081150290604051600060405180830381858888f19350505050158015610609573d6000803e3d6000fd5b50565b60025481565b6000819050919050565b61062581610612565b82525050565b6000602082019050610640600083018461061c565b92915050565b600073ffffffffffffffffffffffffffffffffffffffff82169050919050565b600061067182610646565b9050919050565b61068181610666565b82525050565b600060208201905061069c6000830184610678565b92915050565b600080fd5b6106b081610612565b81146106bb57600080fd5b50565b6000813590506106cd816106a7565b92915050565b6000602082840312156106e9576106e86106a2565b5b60006106f7848285016106be565b91505092915050565b6000819050919050565b61071381610700565b82525050565b600060208201905061072e600083018461070a565b92915050565b7f4e487b7100000000000000000000000000000000000000000000000000000000600052601260045260246000fd5b7f4e487b7100000000000000000000000000000000000000000000000000000000600052601160045260246000fd5b600061079d82610612565b91506107a883610612565b9250826107b8576107b7610734565b5b828204905092915050565b60006107ce82610612565b91506107d983610612565b92508282026107e781610612565b915082820484148315176107fe576107fd610763565b5b5092915050565b600082825260208201905092915050565b7f6e6f7420656e6f756768206d6f6e657920746f20707572636861736520746f6b60008201527f656e730000000000000000000000000000000000000000000000000000000000602082015250565b6000610872602383610805565b915061087d82610816565b604082019050919050565b600060208201905081810360008301526108a181610865565b9050919050565b60006108b382610612565b91506108be83610612565b92508282019050808211156108d6576108d5610763565b5b92915050565b7f746f6b656e20616c726561647920736f6c640000000000000000000000000000600082015250565b6000610912601283610805565b915061091d826108dc565b602082019050919050565b6000602082019050818103600083015261094181610905565b9050919050565b600060408201905061095d6000830185610678565b61096a602083018461061c565b9392505050565b600069ffffffffffffffffffff82169050919050565b61099081610971565b811461099b57600080fd5b50565b6000815190506109ad81610987565b92915050565b6109bc81610700565b81146109c757600080fd5b50565b6000815190506109d9816109b3565b92915050565b6000815190506109ee816106a7565b92915050565b600080600080600060a08688031215610a1057610a0f6106a2565b5b6000610a1e8882890161099e565b9550506020610a2f888289016109ca565b9450506040610a40888289016109df565b9350506060610a51888289016109df565b9250506080610a628882890161099e565b915050929550929590935056fea26469706673582212209bbd0112c30513324aed492d520ca2c5cfbd90fcee9a1e77c62dd1885df86e7a64736f6c63430008140033",
  "linkReferences": {},
  "deployedLinkReferences": {}
}