{
  "_format": "hh-sol-artifact-1",
  "contractName": "Stacking",
  "sourceName": "contracts/Staking.sol",
  "abi": [
    {
      "inputs": [
        {
          "internalType": "address",
          "name": "token",
          "type": "address"
        }
      ],
      "stateMutability": "nonpayable",
      "type": "constructor"
    },
    {
      "anonymous": false,
      "inputs": [
        {
          "indexed": false,
          "internalType": "uint256",
          "name": "",
          "type": "uint256"
        }
      ],
      "name": "tokenStacked",
      "type": "event"
    },
    {
      "anonymous": false,
      "inputs": [
        {
          "indexed": false,
          "internalType": "uint256",
          "name": "",
          "type": "uint256"
        },
        {
          "indexed": false,
          "internalType": "uint256",
          "name": "",
          "type": "uint256"
        }
      ],
      "name": "tokenUnStacked",
      "type": "event"
    },
    {
      "inputs": [
        {
          "internalType": "uint256",
          "name": "amount",
          "type": "uint256"
        }
      ],
      "name": "stackToken",
      "outputs": [],
      "stateMutability": "nonpayable",
      "type": "function"
    },
    {
      "inputs": [
        {
          "internalType": "address",
          "name": "",
          "type": "address"
        }
      ],
      "name": "stackers",
      "outputs": [
        {
          "internalType": "uint256",
          "name": "amount",
          "type": "uint256"
        },
        {
          "internalType": "uint256",
          "name": "time",
          "type": "uint256"
        }
      ],
      "stateMutability": "view",
      "type": "function"
    },
    {
      "inputs": [
        {
          "internalType": "uint256",
          "name": "amount",
          "type": "uint256"
        }
      ],
      "name": "unStackToken",
      "outputs": [],
      "stateMutability": "nonpayable",
      "type": "function"
    }
  ],
  "bytecode": "0x608060405234801561001057600080fd5b50604051610ed4380380610ed4833981810160405281019061003291906100dc565b80600160006101000a81548173ffffffffffffffffffffffffffffffffffffffff021916908373ffffffffffffffffffffffffffffffffffffffff16021790555050610109565b600080fd5b600073ffffffffffffffffffffffffffffffffffffffff82169050919050565b60006100a98261007e565b9050919050565b6100b98161009e565b81146100c457600080fd5b50565b6000815190506100d6816100b0565b92915050565b6000602082840312156100f2576100f1610079565b5b6000610100848285016100c7565b91505092915050565b610dbc806101186000396000f3fe608060405234801561001057600080fd5b50600436106100415760003560e01c80635ba47b731461004657806365a2c0b114610077578063eeb3d8c914610093575b600080fd5b610060600480360381019061005b919061078c565b6100af565b60405161006e9291906107d2565b60405180910390f35b610091600480360381019061008c9190610827565b6100d3565b005b6100ad60048036038101906100a89190610827565b61044a565b005b60006020528060005260406000206000915090508060000154908060010154905082565b61c350811015610118576040517f08c379a000000000000000000000000000000000000000000000000000000000815260040161010f906108b1565b60405180910390fd5b6412a05f2000600160009054906101000a900473ffffffffffffffffffffffffffffffffffffffff1673ffffffffffffffffffffffffffffffffffffffff166318160ddd6040518163ffffffff1660e01b8152600401602060405180830381865afa15801561018b573d6000803e3d6000fd5b505050506040513d601f19601f820116820180604052508101906101af91906108e6565b106101ef576040517f08c379a00000000000000000000000000000000000000000000000000000000081526004016101e690610985565b60405180910390fd5b80600160009054906101000a900473ffffffffffffffffffffffffffffffffffffffff1673ffffffffffffffffffffffffffffffffffffffff1663dd62ed3e33306040518363ffffffff1660e01b815260040161024d9291906109b4565b602060405180830381865afa15801561026a573d6000803e3d6000fd5b505050506040513d601f19601f8201168201806040525081019061028e91906108e6565b10156102cf576040517f08c379a00000000000000000000000000000000000000000000000000000000081526004016102c690610a4f565b60405180910390fd5b600160009054906101000a900473ffffffffffffffffffffffffffffffffffffffff1673ffffffffffffffffffffffffffffffffffffffff166323b872dd3330846040518463ffffffff1660e01b815260040161032e93929190610a6f565b6020604051808303816000875af115801561034d573d6000803e3d6000fd5b505050506040513d601f19601f820116820180604052508101906103719190610ade565b5060008060003373ffffffffffffffffffffffffffffffffffffffff1673ffffffffffffffffffffffffffffffffffffffff1681526020019081526020016000209050818160000160008282546103c89190610b3a565b925050819055506000816001015411156104055760024282600101546103ee9190610b3a565b6103f89190610b9d565b816001018190555061040f565b4281600101819055505b7f6b586b6f18121e190ee05928e92a0e095ce6053ed3f1c554948e78e6f99a065c8260405161043e9190610bce565b60405180910390a15050565b600081101561048e576040517f08c379a000000000000000000000000000000000000000000000000000000000815260040161048590610c35565b60405180910390fd5b60008060003373ffffffffffffffffffffffffffffffffffffffff1673ffffffffffffffffffffffffffffffffffffffff16815260200190815260200160002090508181600001541015610517576040517f08c379a000000000000000000000000000000000000000000000000000000000815260040161050e90610cc7565b60405180910390fd5b60006105428383604051806040016040529081600082015481526020016001820154815250506106cd565b9050600160009054906101000a900473ffffffffffffffffffffffffffffffffffffffff1673ffffffffffffffffffffffffffffffffffffffff166340c10f1933836040518363ffffffff1660e01b81526004016105a1929190610ce7565b600060405180830381600087803b1580156105bb57600080fd5b505af11580156105cf573d6000803e3d6000fd5b50505050600160009054906101000a900473ffffffffffffffffffffffffffffffffffffffff1673ffffffffffffffffffffffffffffffffffffffff1663a9059cbb33856040518363ffffffff1660e01b8152600401610630929190610ce7565b6020604051808303816000875af115801561064f573d6000803e3d6000fd5b505050506040513d601f19601f820116820180604052508101906106739190610ade565b50828260000160008282546106889190610d10565b925050819055507f03f6e56837a2ffa9e389354e0d1a16da1f3c04914e7f8ed5ba46c4fb3b61401883826040516106c09291906107d2565b60405180910390a1505050565b60008060646005856106df9190610d44565b6106e99190610b9d565b90506000620151808460200151426107019190610d10565b61070b9190610b9d565b90506000818361071b9190610d44565b905080935050505092915050565b600080fd5b600073ffffffffffffffffffffffffffffffffffffffff82169050919050565b60006107598261072e565b9050919050565b6107698161074e565b811461077457600080fd5b50565b60008135905061078681610760565b92915050565b6000602082840312156107a2576107a1610729565b5b60006107b084828501610777565b91505092915050565b6000819050919050565b6107cc816107b9565b82525050565b60006040820190506107e760008301856107c3565b6107f460208301846107c3565b9392505050565b610804816107b9565b811461080f57600080fd5b50565b600081359050610821816107fb565b92915050565b60006020828403121561083d5761083c610729565b5b600061084b84828501610812565b91505092915050565b600082825260208201905092915050565b7f6d696e696d756d20353020746f6b656e20746f20737461636b00000000000000600082015250565b600061089b601983610854565b91506108a682610865565b602082019050919050565b600060208201905081810360008301526108ca8161088e565b9050919050565b6000815190506108e0816107fb565b92915050565b6000602082840312156108fc576108fb610729565b5b600061090a848285016108d1565b91505092915050565b7f6d617820737570706c7920726561636865642063616e7420737461636b20616e60008201527f796d6f7265000000000000000000000000000000000000000000000000000000602082015250565b600061096f602583610854565b915061097a82610913565b604082019050919050565b6000602082019050818103600083015261099e81610962565b9050919050565b6109ae8161074e565b82525050565b60006040820190506109c960008301856109a5565b6109d660208301846109a5565b9392505050565b7f796f7520646964206e6f7420616c6c6f772074686520636f6e7472616374207460008201527f6f20737461636b2074686520746f6b656e000000000000000000000000000000602082015250565b6000610a39603183610854565b9150610a44826109dd565b604082019050919050565b60006020820190508181036000830152610a6881610a2c565b9050919050565b6000606082019050610a8460008301866109a5565b610a9160208301856109a5565b610a9e60408301846107c3565b949350505050565b60008115159050919050565b610abb81610aa6565b8114610ac657600080fd5b50565b600081519050610ad881610ab2565b92915050565b600060208284031215610af457610af3610729565b5b6000610b0284828501610ac9565b91505092915050565b7f4e487b7100000000000000000000000000000000000000000000000000000000600052601160045260246000fd5b6000610b45826107b9565b9150610b50836107b9565b9250828201905080821115610b6857610b67610b0b565b5b92915050565b7f4e487b7100000000000000000000000000000000000000000000000000000000600052601260045260246000fd5b6000610ba8826107b9565b9150610bb3836107b9565b925082610bc357610bc2610b6e565b5b828204905092915050565b6000602082019050610be360008301846107c3565b92915050565b7f746f6b656e73206d7573742062652067726561746572207468616e2030000000600082015250565b6000610c1f601d83610854565b9150610c2a82610be9565b602082019050919050565b60006020820190508181036000830152610c4e81610c12565b9050919050565b7f796f7520646f6e74206861766520656e6f75676820746f6b656e20746f20756e60008201527f737461636b000000000000000000000000000000000000000000000000000000602082015250565b6000610cb1602583610854565b9150610cbc82610c55565b604082019050919050565b60006020820190508181036000830152610ce081610ca4565b9050919050565b6000604082019050610cfc60008301856109a5565b610d0960208301846107c3565b9392505050565b6000610d1b826107b9565b9150610d26836107b9565b9250828203905081811115610d3e57610d3d610b0b565b5b92915050565b6000610d4f826107b9565b9150610d5a836107b9565b9250828202610d68816107b9565b91508282048414831517610d7f57610d7e610b0b565b5b509291505056fea264697066735822122086f828da106c57d7d192a1d5b7e98e172201ed71029cdce37d195911d450e1bc64736f6c63430008140033",
  "linkReferences": {},
  "deployedLinkReferences": {}
}